{
  "contractName": "Insurance",
  "abi": [
    {
      "anonymous": false,
      "inputs": [
        {
          "indexed": false,
          "name": "profile",
          "type": "bytes32"
        },
        {
          "indexed": false,
          "name": "insuranceAgent",
          "type": "bytes32"
        }
      ],
      "name": "insuranceEvent",
      "type": "event"
    },
    {
      "constant": false,
      "inputs": [
        {
          "name": "_profileAddress",
          "type": "address"
        },
        {
          "name": "_vehicleId",
          "type": "uint256"
        },
        {
          "name": "_currentInsuranceNumber",
          "type": "uint256"
        },
        {
          "name": "_currentExpiryDate",
          "type": "bytes32"
        },
        {
          "name": "_currentInsuranceProvider",
          "type": "bytes32"
        },
        {
          "name": "_previousInsuranceNumber",
          "type": "uint256"
        },
        {
          "name": "_previousExpiryDate",
          "type": "bytes32"
        },
        {
          "name": "_previousInsuranceProvider",
          "type": "bytes32"
        }
      ],
      "name": "addInsurance",
      "outputs": [
        {
          "name": "res",
          "type": "bool"
        }
      ],
      "payable": false,
      "stateMutability": "nonpayable",
      "type": "function"
    },
    {
      "constant": true,
      "inputs": [
        {
          "name": "_vehicleId",
          "type": "uint256"
        }
      ],
      "name": "getCurrentInsuranceInfoByVehicle",
      "outputs": [
        {
          "name": "",
          "type": "uint256"
        },
        {
          "name": "",
          "type": "uint256"
        },
        {
          "name": "",
          "type": "bytes32"
        },
        {
          "name": "",
          "type": "bytes32"
        },
        {
          "name": "",
          "type": "uint256"
        },
        {
          "name": "",
          "type": "bytes32"
        },
        {
          "name": "",
          "type": "bytes32"
        }
      ],
      "payable": false,
      "stateMutability": "view",
      "type": "function"
    },
    {
      "constant": true,
      "inputs": [
        {
          "name": "_agentAddress",
          "type": "address"
        }
      ],
      "name": "getAllInsuranceInfoByAgent1",
      "outputs": [
        {
          "name": "",
          "type": "uint256[]"
        },
        {
          "name": "",
          "type": "uint256[]"
        },
        {
          "name": "",
          "type": "bytes32[]"
        },
        {
          "name": "",
          "type": "bytes32[]"
        }
      ],
      "payable": false,
      "stateMutability": "view",
      "type": "function"
    },
    {
      "constant": true,
      "inputs": [
        {
          "name": "_agentAddress",
          "type": "address"
        }
      ],
      "name": "getAllInsuranceInfoByAgent2",
      "outputs": [
        {
          "name": "",
          "type": "uint256[]"
        },
        {
          "name": "",
          "type": "bytes32[]"
        },
        {
          "name": "",
          "type": "bytes32[]"
        }
      ],
      "payable": false,
      "stateMutability": "view",
      "type": "function"
    }
  ],
  "bytecode": "0x6060604052341561000f57600080fd5b61100e8061001e6000396000f300606060405260043610610062576000357c0100000000000000000000000000000000000000000000000000000000900463ffffffff1680631e01ddc11461006757806324792139146100e8578063e696feb014610206578063f4f391c31461036c575b600080fd5b341561007257600080fd5b610088600480803590602001909190505061040c565b60405180888152602001878152602001866000191660001916815260200185600019166000191681526020018481526020018360001916600019168152602001826000191660001916815260200197505050505050505060405180910390f35b34156100f357600080fd5b61011f600480803573ffffffffffffffffffffffffffffffffffffffff169060200190919050506104e3565b60405180806020018060200180602001848103845287818151815260200191508051906020019060200280838360005b8381101561016a57808201518184015260208101905061014f565b50505050905001848103835286818151815260200191508051906020019060200280838360005b838110156101ac578082015181840152602081019050610191565b50505050905001848103825285818151815260200191508051906020019060200280838360005b838110156101ee5780820151818401526020810190506101d3565b50505050905001965050505050505060405180910390f35b341561021157600080fd5b61023d600480803573ffffffffffffffffffffffffffffffffffffffff169060200190919050506107a3565b6040518080602001806020018060200180602001858103855289818151815260200191508051906020019060200280838360005b8381101561028c578082015181840152602081019050610271565b50505050905001858103845288818151815260200191508051906020019060200280838360005b838110156102ce5780820151818401526020810190506102b3565b50505050905001858103835287818151815260200191508051906020019060200280838360005b838110156103105780820151818401526020810190506102f5565b50505050905001858103825286818151815260200191508051906020019060200280838360005b83811015610352578082015181840152602081019050610337565b505050509050019850505050505050505060405180910390f35b341561037757600080fd5b6103f2600480803573ffffffffffffffffffffffffffffffffffffffff1690602001909190803590602001909190803590602001909190803560001916906020019091908035600019169060200190919080359060200190919080356000191690602001909190803560001916906020019091905050610ab9565b604051808215151515815260200191505060405180910390f35b600080600080600080600061041f610f1f565b600160008a815260200190815260200160002060e0604051908101604052908160008201548152602001600182015481526020016002820154600019166000191681526020016003820154600019166000191681526020016004820154815260200160058201546000191660001916815260200160068201546000191660001916815250509050806000015181602001518260400151836060015184608001518560a001518660c00151975097509750975097509750975050919395979092949650565b6104eb610f69565b6104f3610f7d565b6104fb610f7d565b6000610505610f69565b61050d610f7d565b610515610f7d565b61051d610f69565b6000610527610f1f565b6000808c73ffffffffffffffffffffffffffffffffffffffff1673ffffffffffffffffffffffffffffffffffffffff168152602001908152602001600020805490509650866040518059106105795750595b908082528060200260200182016040525095508660405180591061059a5750595b90808252806020026020018201604052509450866040518059106105bb5750595b908082528060200260200182016040525093506000808c73ffffffffffffffffffffffffffffffffffffffff1673ffffffffffffffffffffffffffffffffffffffff16815260200190815260200160002080548060200260200160405190810160405280929190818152602001828054801561065657602002820191906000526020600020905b815481526020019060010190808311610642575b50505050509250600091505b8682101561078c5760016000848481518110151561067c57fe5b90602001906020020151815260200190815260200160002060e06040519081016040529081600082015481526020016001820154815260200160028201546000191660001916815260200160038201546000191660001916815260200160048201548152602001600582015460001916600019168152602001600682015460001916600019168152505090508060800151868381518110151561071b57fe5b90602001906020020181815250508060a00151858381518110151561073c57fe5b9060200190602002019060001916908160001916815250508060c00151848381518110151561076757fe5b9060200190602002019060001916908160001916815250508180600101925050610662565b858585995099509950505050505050509193909250565b6107ab610f69565b6107b3610f69565b6107bb610f7d565b6107c3610f7d565b60006107cd610f69565b6107d5610f69565b6107dd610f7d565b6107e5610f7d565b6107ed610f69565b60006107f7610f1f565b6000808e73ffffffffffffffffffffffffffffffffffffffff1673ffffffffffffffffffffffffffffffffffffffff168152602001908152602001600020805490509750876040518059106108495750595b908082528060200260200182016040525096508760405180591061086a5750595b908082528060200260200182016040525095508760405180591061088b5750595b90808252806020026020018201604052509450876040518059106108ac5750595b908082528060200260200182016040525093506000808e73ffffffffffffffffffffffffffffffffffffffff1673ffffffffffffffffffffffffffffffffffffffff16815260200190815260200160002080548060200260200160405190810160405280929190818152602001828054801561094757602002820191906000526020600020905b815481526020019060010190808311610933575b50505050509250600091505b87821015610a9e5760016000848481518110151561096d57fe5b90602001906020020151815260200190815260200160002060e060405190810160405290816000820154815260200160018201548152602001600282015460001916600019168152602001600382015460001916600019168152602001600482015481526020016005820154600019166000191681526020016006820154600019166000191681525050905080600001518783815181101515610a0c57fe5b906020019060200201818152505080602001518683815181101515610a2d57fe5b906020019060200201818152505080604001518583815181101515610a4e57fe5b90602001906020020190600019169081600019168152505080606001518483815181101515610a7957fe5b9060200190602002019060001916908160001916815250508180600101925050610953565b868686869b509b509b509b5050505050505050509193509193565b6000806000610ac6610f69565b60007f4b2b1d149987cb57754678292edad91b082776567b8d9080fe1b142fd1b6d84a8d73ffffffffffffffffffffffffffffffffffffffff16630f53a470336000604051602001526040518263ffffffff167c0100000000000000000000000000000000000000000000000000000000028152600401808273ffffffffffffffffffffffffffffffffffffffff1673ffffffffffffffffffffffffffffffffffffffff168152602001915050602060405180830381600087803b1515610b8c57600080fd5b6102c65a03f11515610b9d57600080fd5b50505060405180519050610bd07f696e737572616e63654167656e74000000000000000000000000000000000000610f15565b60405180836000191660001916815260200182600019166000191681526020019250505060405180910390a1610c257f696e737572616e63654167656e74000000000000000000000000000000000000610f15565b600019168d73ffffffffffffffffffffffffffffffffffffffff16630f53a470336000604051602001526040518263ffffffff167c0100000000000000000000000000000000000000000000000000000000028152600401808273ffffffffffffffffffffffffffffffffffffffff1673ffffffffffffffffffffffffffffffffffffffff168152602001915050602060405180830381600087803b1515610ccc57600080fd5b6102c65a03f11515610cdd57600080fd5b5050506040518051905060001916141515610cfb5760009450610f05565b339350600092506000808573ffffffffffffffffffffffffffffffffffffffff1673ffffffffffffffffffffffffffffffffffffffff168152602001908152602001600020805480602002602001604051908101604052809291908181526020018280548015610d8a57602002820191906000526020600020905b815481526020019060010190808311610d76575b50505050509150600082511115610ddb57600090505b8151811015610dda578b8282815181101515610db857fe5b906020019060200201511415610dcd57600192505b8080600101915050610da0565b5b821515610e48576000808573ffffffffffffffffffffffffffffffffffffffff1673ffffffffffffffffffffffffffffffffffffffff1681526020019081526020016000208054806001018281610e329190610f91565b916000526020600020900160008e909190915055505b60e0604051908101604052808d81526020018c81526020018b6000191681526020018a600019168152602001898152602001886000191681526020018760001916815250600160008e8152602001908152602001600020600082015181600001556020820151816001015560408201518160020190600019169055606082015181600301906000191690556080820151816004015560a0820151816005019060001916905560c08201518160060190600019169055905050600194505b5050505098975050505050505050565b6000819050919050565b60e060405190810160405280600081526020016000815260200160008019168152602001600080191681526020016000815260200160008019168152602001600080191681525090565b602060405190810160405280600081525090565b602060405190810160405280600081525090565b815481835581811511610fb857818360005260206000209182019101610fb79190610fbd565b5b505050565b610fdf91905b80821115610fdb576000816000905550600101610fc3565b5090565b905600a165627a7a72305820e33dacaa920ababb6abfd73c1d281ef351fb7020ef5987d8b700a59c97978c640029",
  "source": "pragma solidity ^0.4.17;\r\nimport \"./Profiles.sol\";\r\n\r\n/**\r\n * The Insurance contract is mainly used to deal with all the insurance related operations of car\r\n */\r\ncontract Insurance {\r\n\r\n\tstruct InsuranceInfo {\r\n\t\tuint vehicleId;\r\n\t\tuint currentInsuranceNumber;\r\n\t\tbytes32 currentExpiryDate;\r\n\t\tbytes32 currentInsuranceProvider;\r\n\t\tuint previousInsuranceNumber;\r\n\t\tbytes32 previousExpiryDate;\r\n\t\tbytes32 previousInsuranceProvider;\t\t\r\n\t}\r\n\r\n\tmapping (address => uint[]) agentInsuranceMap;\r\n\r\n\t// mapping (address => uint) agentInsuranceLength;\r\n\r\n\tmapping (uint => InsuranceInfo) insuranceMap;\t\r\n\t\r\n\tfunction stringToBytes32 (bytes32 data) pure internal returns(bytes32 resData) {\r\n\t\treturn data;\r\n\t}\r\n\t\r\n\tevent insuranceEvent(bytes32 profile, bytes32 insuranceAgent);\r\n\t\r\n\r\n\tfunction addInsurance (address _profileAddress, uint _vehicleId, uint _currentInsuranceNumber, bytes32 _currentExpiryDate, bytes32 _currentInsuranceProvider, uint _previousInsuranceNumber, bytes32 _previousExpiryDate, bytes32 _previousInsuranceProvider) public returns(bool res) {\r\n\r\n\t\tinsuranceEvent(Profiles(_profileAddress).getProfile(msg.sender),stringToBytes32(\"insuranceAgent\"));\r\n\r\n\t\tif(Profiles(_profileAddress).getProfile(msg.sender)!=stringToBytes32(\"insuranceAgent\")) {\r\n\t\t\treturn false;\r\n\t\t}\r\n\r\n\t\taddress _agentAddress = msg.sender;\r\n\t\tbool agentHasVehicle = false;\r\n\t\tuint[] memory vehicleIdsOfAgent = agentInsuranceMap[_agentAddress];\r\n\t\tif(vehicleIdsOfAgent.length>0) {\r\n\t\t\tfor(uint i=0;i<vehicleIdsOfAgent.length;i++) {\r\n\t\t\t\tif(vehicleIdsOfAgent[i]==_vehicleId) {\r\n\t\t\t\t\tagentHasVehicle = true;\r\n\t\t\t\t}\r\n\t\t\t}\r\n\t\t}\r\n\t\tif(!agentHasVehicle) {\r\n\t\t\t// agentInsuranceLength[_agentAddress] = agentInsuranceLength[_agentAddress] + 1;\r\n\t\t\tagentInsuranceMap[_agentAddress].push(_vehicleId);\r\n\t\t}\r\n\t\tinsuranceMap[_vehicleId] = InsuranceInfo(_vehicleId, _currentInsuranceNumber, _currentExpiryDate, _currentInsuranceProvider, _previousInsuranceNumber, _previousExpiryDate, _previousInsuranceProvider);\r\n\t\treturn true;\r\n\t}\r\n\r\n\tfunction getCurrentInsuranceInfoByVehicle (uint _vehicleId) public constant returns(uint, uint, bytes32, bytes32, uint, bytes32, bytes32) {\r\n\t\tInsuranceInfo memory currentInsuranceInfo = insuranceMap[_vehicleId];\r\n\t\treturn(currentInsuranceInfo.vehicleId, currentInsuranceInfo.currentInsuranceNumber, currentInsuranceInfo.currentExpiryDate, currentInsuranceInfo.currentInsuranceProvider, currentInsuranceInfo.previousInsuranceNumber, currentInsuranceInfo.previousExpiryDate, currentInsuranceInfo.previousInsuranceProvider);\r\n\t}\r\n\r\n\tfunction getAllInsuranceInfoByAgent1 (address _agentAddress) public constant returns(uint[], uint[], bytes32[], bytes32[]) {\r\n\r\n\t\tuint size = agentInsuranceMap[_agentAddress].length;\r\n\t\tuint[] memory vehicleIds = new uint[](size);\r\n\t\tuint[] memory currentInsuranceNumbers = new uint[](size);\r\n\t\tbytes32[] memory currentExpiryDates = new bytes32[](size);\r\n\t\tbytes32[] memory currentInsuranceProviders = new bytes32[](size);\r\n\t\tuint[] memory agentVehicleIds = agentInsuranceMap[_agentAddress];\r\n\r\n\t\tfor(uint i=0; i<size; i++) {\r\n\t\t\tInsuranceInfo memory currentInsurance = insuranceMap[agentVehicleIds[i]];\r\n\t\t\tvehicleIds[i] = currentInsurance.vehicleId;\r\n\t\t\tcurrentInsuranceNumbers[i] = currentInsurance.currentInsuranceNumber;\r\n\t\t\tcurrentExpiryDates[i] = currentInsurance.currentExpiryDate;\r\n\t\t\tcurrentInsuranceProviders[i] = currentInsurance.currentInsuranceProvider;\r\n\t\t}\r\n\r\n\t\treturn(vehicleIds, currentInsuranceNumbers, currentExpiryDates, currentInsuranceProviders/*, previousInsuranceNumbers, previousExpiryDates, previousInsuranceProviders*/);\r\n\t}\r\n\r\n\tfunction getAllInsuranceInfoByAgent2 (address _agentAddress) public constant returns(uint[], bytes32[], bytes32[]) {\r\n\r\n\t\tuint size = agentInsuranceMap[_agentAddress].length;\r\n\t\tuint[] memory previousInsuranceNumbers = new uint[](size);\r\n\t\tbytes32[] memory previousExpiryDates = new bytes32[](size);\r\n\t\tbytes32[] memory previousInsuranceProviders = new bytes32[](size);\r\n\t\tuint[] memory agentVehicleIds = agentInsuranceMap[_agentAddress];\r\n\r\n\t\tfor(uint i=0; i<size; i++) {\r\n\t\t\tInsuranceInfo memory currentInsurance = insuranceMap[agentVehicleIds[i]];\r\n\t\t\tpreviousInsuranceNumbers[i] = currentInsurance.previousInsuranceNumber;\r\n\t\t\tpreviousExpiryDates[i] = currentInsurance.previousExpiryDate;\r\n\t\t\tpreviousInsuranceProviders[i] = currentInsurance.previousInsuranceProvider;\r\n\t\t}\r\n\r\n\t\treturn(previousInsuranceNumbers, previousExpiryDates, previousInsuranceProviders);\r\n\t}\r\n}",
  "sourcePath": "F:\\My Data\\Blockchain\\autochain\\contracts\\Insurance.sol",
  "compiler": {
    "name": "solc",
    "version": "0.4.19+commit.c4cbbb05.Emscripten.clang"
  },
  "schemaVersion": "1.0.1",
  "updatedAt": "2018-03-18T03:10:03.802Z"
}