{
  "contractName": "Profiles",
  "abi": [
    {
      "inputs": [],
      "payable": false,
      "stateMutability": "nonpayable",
      "type": "constructor"
    },
    {
      "constant": false,
      "inputs": [
        {
          "name": "_profileName",
          "type": "bytes32"
        }
      ],
      "name": "addProfile",
      "outputs": [
        {
          "name": "res",
          "type": "bool"
        }
      ],
      "payable": false,
      "stateMutability": "nonpayable",
      "type": "function"
    },
    {
      "constant": false,
      "inputs": [
        {
          "name": "_userAddress",
          "type": "address"
        },
        {
          "name": "_profileName",
          "type": "bytes32"
        }
      ],
      "name": "assignProfile",
      "outputs": [
        {
          "name": "res",
          "type": "bool"
        }
      ],
      "payable": false,
      "stateMutability": "nonpayable",
      "type": "function"
    },
    {
      "constant": true,
      "inputs": [
        {
          "name": "_userAddress",
          "type": "address"
        }
      ],
      "name": "getProfile",
      "outputs": [
        {
          "name": "",
          "type": "bytes32"
        }
      ],
      "payable": false,
      "stateMutability": "view",
      "type": "function"
    },
    {
      "constant": true,
      "inputs": [],
      "name": "getAllProfiles",
      "outputs": [
        {
          "name": "",
          "type": "bytes32[]"
        }
      ],
      "payable": false,
      "stateMutability": "view",
      "type": "function"
    }
  ],
  "bytecode": "0x6060604052341561000f57600080fd5b60003390507f61646d696e000000000000000000000000000000000000000000000000000000600160008373ffffffffffffffffffffffffffffffffffffffff1673ffffffffffffffffffffffffffffffffffffffff16815260200190815260200160002081600019169055506000805480600101828161009091906100d1565b916000526020600020900160007f61646d696e0000000000000000000000000000000000000000000000000000009091909150906000191690555050610122565b8154818355818115116100f8578183600052602060002091820191016100f791906100fd565b5b505050565b61011f91905b8082111561011b576000816000905550600101610103565b5090565b90565b6104f1806101316000396000f300606060405260043610610062576000357c0100000000000000000000000000000000000000000000000000000000900463ffffffff1680630b1fe784146100675780630f53a470146100d1578063c327c3b914610126578063d925a45014610165575b600080fd5b341561007257600080fd5b61007a6101c3565b6040518080602001828103825283818151815260200191508051906020019060200280838360005b838110156100bd5780820151818401526020810190506100a2565b505050509050019250505060405180910390f35b34156100dc57600080fd5b610108600480803573ffffffffffffffffffffffffffffffffffffffff16906020019091905050610225565b60405180826000191660001916815260200191505060405180910390f35b341561013157600080fd5b61014b60048080356000191690602001909190505061026e565b604051808215151515815260200191505060405180910390f35b341561017057600080fd5b6101a9600480803573ffffffffffffffffffffffffffffffffffffffff1690602001909190803560001916906020019091905050610392565b604051808215151515815260200191505060405180910390f35b6101cb610460565b600080548060200260200160405190810160405280929190818152602001828054801561021b57602002820191906000526020600020905b81546000191681526020019060010190808311610203575b5050505050905090565b6000600160008373ffffffffffffffffffffffffffffffffffffffff1673ffffffffffffffffffffffffffffffffffffffff168152602001908152602001600020549050919050565b60008060007f61646d696e00000000000000000000000000000000000000000000000000000060001916600160003373ffffffffffffffffffffffffffffffffffffffff1673ffffffffffffffffffffffffffffffffffffffff16815260200190815260200160002054600019161415156102ec576000925061038b565b60009150600090505b60008054905081101561034257836000191660008281548110151561031657fe5b9060005260206000209001546000191614156103355760019150610342565b80806001019150506102f5565b81151561037d576000805480600101828161035d9190610474565b916000526020600020900160008690919091509060001916905550610386565b6000925061038b565b600192505b5050919050565b60007f61646d696e00000000000000000000000000000000000000000000000000000060001916600160003373ffffffffffffffffffffffffffffffffffffffff1673ffffffffffffffffffffffffffffffffffffffff168152602001908152602001600020546000191614151561040d576000905061045a565b81600160008573ffffffffffffffffffffffffffffffffffffffff1673ffffffffffffffffffffffffffffffffffffffff1681526020019081526020016000208160001916905550600190505b92915050565b602060405190810160405280600081525090565b81548183558181151161049b5781836000526020600020918201910161049a91906104a0565b5b505050565b6104c291905b808211156104be5760008160009055506001016104a6565b5090565b905600a165627a7a723058200aca679a7cb4e6a9b8fe9efdbd66d02bc0e054263b4fc80cd3992b10a24a18f50029",
  "source": "pragma solidity ^0.4.17;\r\n\r\n/**\r\n * The Profiles contract does this and that...\r\n */\r\ncontract Profiles {\r\n\r\n\tbytes32[] profileNames;\r\n\tmapping (address => bytes32) profileMapping;\r\n\r\n\tfunction Profiles() public {\r\n\t\taddress adminAddress = msg.sender;\r\n\t\tprofileMapping[adminAddress] = \"admin\";\r\n\t\tprofileNames.push(\"admin\");\r\n\t}\r\n\r\n\tfunction addProfile (bytes32 _profileName) public returns(bool res) {\r\n\t\tif(profileMapping[msg.sender]!=bytes32(\"admin\")) {\r\n\t\t\treturn false;\r\n\t\t}\r\n\t\tbool profileExist = false;\r\n\t\tfor(uint i=0; i<profileNames.length; i++) {\r\n\t\t\tif(profileNames[i]==_profileName) {\r\n\t\t\t\tprofileExist = true;\r\n\t\t\t\tbreak;\r\n\t\t\t}\r\n\t\t}\r\n\t\tif(!profileExist) {\r\n\t\t\tprofileNames.push(_profileName);\r\n\t\t} else {\r\n\t\t\treturn false;\r\n\t\t}\r\n\t\treturn true;\t\t\t\r\n\t}\t\r\n\r\n\tfunction assignProfile (address _userAddress, bytes32 _profileName) public returns(bool res) {\r\n\t\tif(profileMapping[msg.sender]!=bytes32(\"admin\")) {\r\n\t\t\treturn false;\r\n\t\t}\r\n\t\tprofileMapping[_userAddress] = _profileName;\r\n\t\treturn true;\r\n\t}\r\n\t\r\n\r\n\tfunction getProfile (address _userAddress) public constant returns(bytes32) {\r\n\t\treturn profileMapping[_userAddress];\t\t\r\n\t}\r\n\r\n\tfunction getAllProfiles () public constant returns(bytes32[]) {\r\n\t\treturn profileNames;\r\n\t}\r\n\t\r\n}",
  "sourcePath": "F:\\My Data\\Blockchain\\autochain\\contracts\\Profiles.sol",
  "compiler": {
    "name": "solc",
    "version": "0.4.19+commit.c4cbbb05.Emscripten.clang"
  },
  "schemaVersion": "1.0.1",
  "updatedAt": "2018-03-18T03:10:03.796Z"
}